:1000000000800020B1010000DD010000DD010000E2
:10001000DD010000DD010000DD010000DD01000068
:10002000DD010000DD010000DD010000DD01000058
:10003000DD010000DD010000DD01000071B3000002
:100040000D900000DDB20000A1720000DD01000093
:10005000DD010000A9590000DD01000079B00000B9
:10006000DD010000DD010000DD010000F1B2000053
:10007000DD010000DD010000DD010000DD01000008
:10008000DD010000DD010000DD010000DD010000F8
:10009000DD010000DD010000DD010000DD010000E8
:1000A000DD010000DD010000DD010000DD010000D8
:1000B000DD010000DD010000090C0000DD01000091
:1000C000DD010000DD010000DD010000DD010000B8
:1000D000DD010000DD010000DD010000DD010000A8
:1000E00010B5054C237833B9044B13B10448AFF372
:1000F00000800123237010BD980100200000000043
:100100002C010100084B10B51BB108480849AFF39A
:1001100000800848036803B910BD074B002BFBD0D3
:10012000BDE81040184700BF000000002C0101008E
:100130009C0100209401002000000000154B002BC2
:1001400008BF134B9D46A3F5803A00218B460F460E
:100150001348144A121A0FF0C1F80F4B002B00D0AD
:1001600098470E4B002B00D0984700200021040038
:100170000D000D48002802D00C48AFF300800FF0AE
:1001800061F8200029000AF089FC0FF047F800BF51
:1001900000000800008000200000000000000000B7
:1001A00098010020682400200000000000000000EA
:1001B000064880470649074A074B9A42BEBF51F896
:1001C000040B42F8040BF8E7FFF7B8FF5D030000EB
:1001D000380101000000002098010020FEE700BF68
:1001E00080B400AF044BDB6C1B0EDBB21846BD467F
:1001F0005DF8047B704700BFB081E00F80B582B02E
:1002000000AF00F01FF87860074B5B6803F00F0346
:100210001A467B68D3407B60044A7B6813607B6826
:1002200018460837BD4680BD00800C4008000020FD
:1002300080B400AF024B1846BD465DF8047B7047A2
:10024000006CDC0280B582B000AF334BDB6A03F494
:100250007053B3F5805F0AD0B3F5005F03D0B3F5F8
:10026000006F08D00BE02D4B1B687B6047E04FF41C
:1002700000437B6043E02A4B1B687B603FE0264BDA
:10028000DB6803F4E063B3F5007F1BD0B3F5007FB8
:1002900005D8002B24D0B3F5807F16D02BE0B3F522
:1002A000806F09D0B3F5A06F03D0B3F5407F06D0BF
:1002B00021E01C4B7B6021E01B4B7B601EE01B4B55
:1002C0007B601BE01A4B7B6018E0FFF789FF034659
:1002D000122B02D9174B7B6010E0174B7B600DE0AF
:1002E000FFF77EFF0346122B02D9144B7B6005E01B
:1002F000134B7B6002E000237B6000BF00BF064B16
:100300001B6803F4E0339B0B01337A68B2FBF3F311
:1003100018460837BD4680BD00800C400400002010
:1003200000000020003FAB01406F4001809FD500DE
:10033000C0D8A70040B56400C0CF6A00804F12004B
:1003400040420F0080B400AF034B1B681846BD4607
:100350005DF8047B704700BF0000002080B400AF50
:10036000054A054BD3F8883043F47003C2F888304F
:10037000BD465DF8047B704700ED00E080B400AF3F
:100380004FF400431846BD465DF8047B704700BF3C
:1003900080B400AF4FF47A731846BD465DF8047B15
:1003A000704700BF80B400AF034B1B681846BD46C2
:1003B0005DF8047B704700BF0400002080B483B068
:1003C00000AF03463960FB71FB79002B0DD0FB7940
:1003D000012B0AD0FB79022B07D0FB79032B04D029
:1003E000FB79042B01D0FB79052B0949FA793B688D
:1003F000012000FA03F318461346DB0013449B0068
:100400000B44103358600C37BD465DF8047B7047D1
:100410000060004080B483B000AF03463960FB71D8
:10042000FB79002B0DD0FB79012B0AD0FB79022B35
:1004300007D0FB79032B04D0FB79042B01D0FB7987
:10044000052B0949FA793B68012000FA03F31846A5
:100450001346DB0013449B000B44103318600C3729
:10046000BD465DF8047B70470060004080B588B0F1
:1004700000AF78603148012108F0D4F97B681B682F
:100480002F4A934202D12F4BBB6106E07B681B6869
:100490002D4A93424FD12D4BBB61B869012108F021
:1004A000C1F97B681A797B685B79104619460A2284
:1004B000012308F0FDFF7B689A797B68DB791046A1
:1004C00019460A22012308F0F3FF0023FB6112E022
:1004D0007B681A797B685B7910461946FFF79AFFAB
:1004E0007B681A797B685B7910461946FFF766FFCF
:1004F000FB690133FB61FB69082BE9DD7B681B6845
:100500007A68127A120242F003029A6301233B7264
:1005100001237B727B681B693B617B68DB68FB6046
:100520007B681B7D3B757B681A6807F108031046E2
:10053000194609F0EBF82037BD4680BD4081040024
:1005400000A0004000B2040000A4004000C204006B
:1005500080B584B000AF786039600E4BBB607868BE
:10056000396809F035FB0346FB7304E0786809F04D
:1005700009F90346FB7397F90F30012B04D1BB68CF
:100580005A1EBA60002BF1D1FB7B5BB218461037C4
:10059000BD4680BDE093040080B483B000AF034645
:1005A000FB71084997F907305B09FA7902F01F02DD
:1005B000012000FA02F241F823200C37BD465DF815
:1005C000047B704700E100E080B483B000AF0346D5
:1005D000FB71094997F907305B09FA7902F01F02AC
:1005E000012000FA02F2603341F823200C37BD46A7
:1005F0005DF8047B704700BF00E100E080B400AF0D
:10060000034B5B681846BD465DF8047B704700BF2E
:100610000000084080B483B000AF7860034A7B6874
:1006200093610C37BD465DF8047B704700000840BD
:1006300080B483B000AF78600549054BDA697B6808
:10064000DB431340CB610C37BD465DF8047B70473C
:100650000000084080B483B000AF78600549054BC6
:10066000DA697B681343CB610C37BD465DF8047BC8
:10067000704700BF0000084080B483B000AF064B55
:10068000DB697B60044B1A697B68134018460C37A2
:10069000BD465DF8047B70470000084080B586B019
:1006A00000AF786000237B6100233B6108F090FC81
:1006B000F86002E07B6901337B617B69032B0ADC14
:1006C00016497A6913469B001344DB000B44183328
:1006D0009B79002BEED17B69042B02D1104B3B613F
:1006E00014E07B68002B0FD00C497A6913469B00FD
:1006F0001344DB000B44183301229A717A697B683A
:100700001A6000233B6101E0064B3B61F86808F08A
:100710006FFC3B6918461837BD4680BDB801002004
:10072000011000F0041000F080B584B000AF7860D4
:10073000796808464FF00001CB0343EA5043C203F7
:1007400012F57A6243F10003104619464FF4FA524B
:100750004FF000030EF090FA02460B46C7E9022361
:100760000CE00F4800F00EFCD7E902230D484FF0D3
:10077000FF31121843EB0103C7E90223D7E9022333
:1007800007484FF00001994208BF9042E9D3BB6887
:10079000184600F0F7FB002318461037BD4680BD11
:1007A0009BFFFF00650000FF80B500AF1D4B1B786D
:1007B000002B01D0002332E01A4B01221A701A4894
:1007C000012108F02FF81948022108F02DFA1848E5
:1007D000082107F011FF1648012108F023F81548F9
:1007E00009F0FEFD0720FFF723FF0720FFF712FFA8
:1007F00009F01EFE1E20FFF7E7FE1E20FFF7CCFECD
:100800000D480021A0220EF069FD0C4B00221A7049
:100810000B4B00221A700B4B00221A600023184663
:1008200080BD00BF620200200043020002001A00E7
:100830006016100030FB0000B801002060020020AC
:10084000610200205C020020B0B58EB000AFF860FD
:100850007A603B600B46FB720023FB62FB68032B54
:1008600001D98D4B8BE108F0B3FBB8628B49FA6874
:1008700013469B001344DB000B4418339B7983F031
:100880000103DBB2002B04D0B86A08F0B1FB844B43
:1008900075E17B68002B0BD13B68002B03D03B68D4
:1008A000F868B96C9847B86A08F0A2FB002366E1C3
:1008B000FFF7A4FE38637949FA6813469B00134496
:1008C000DB000B4418333A681A607B681A464FF015
:1008D0000003DD0345EA5245D40314F57A6245F17D
:1008E0000003104619464FF4FA524FF000030EF081
:1008F000C3F902460B4610461946684CFA6813467F
:100900009B001344DB0023440833C3E90001FB7A56
:10091000012B27D17B684FF47A7202FB03F15F4809
:10092000FA6813469B001344DB0003440833D3E901
:100930000023F42303FB02F3CB1A18465749FA6845
:1009400013469B001344DB000B44103318605349DB
:10095000FA6813469B001344DB000B4410337A22E1
:100960005A6017E04D49FA6813469B001344DB00B8
:100970000B440833D3E9002312F1FF3043F1FF3178
:10098000464CFA6813469B001344DB0023440833AB
:10099000C3E900014149FA6813469B001344DB0098
:1009A0000B440833D3E90023501C43F100013B4CB6
:1009B000FA6813469B001344DB002344C3E900019B
:1009C0003649FA6813469B001344DB000B44183386
:1009D00001221A713149FA6813469B001344DB0067
:1009E0000B441833FA7ADA712C49FA6813469B00E3
:1009F0001344DB000B442033BA6C1A60294B1B787C
:100A0000002B04D0B86A08F0F3FA0023B7E0264BB5
:100A10001B68B3F1FF3F04D0234B1B680133224A0C
:100A20001360224B1B7883F00103DBB2002B43D011
:100A30003B6B23F07F431E4A13600220FFF7EAFD61
:100A40001649FA6813469B001344DB000B44D3E9B4
:100A50000023C7E90823174BFB61FB6918464FF0D9
:100A60000001D7E908238B4208BF824201D2104619
:100A700019460346BB613A6BBB69134423F07F43BD
:100A80000020194609F07EFC0220FFF7E3FD074B2A
:100A900001221A7066E000BF021000F0B8010020C9
:100AA000031000F0600200205C02002061020020C0
:100AB000580200209BFFFF00334B1B68012B51D1D4
:100AC0003249FA6813469B001344DB000B44183389
:100AD00000221A710220FFF7ABFD3B6B1A022C4B70
:100AE0001B681B02D31A1B0A7B637B6B6FF07F4270
:100AF000934201D100237B63786B00F0DFF800F0B4
:100B00005BFAFB6A002B09D12049FA6813469B0067
:100B10001344DB000B44183301221A71FB6A0133C2
:100B2000FB62386B00F07AFAFFF768FD38633B6BC5
:100B30001A02174B1B681B02D31A1B0A7B63002087
:100B400009F002FC03461A02114B1B681B02D31A60
:100B50001B0A7B610F4B1B78002B03D07A6B7B69E0
:100B60009A42B7D8084B1B68002B04D0064B1B6871
:100B7000013B054A1360B86A08F03AFA00231846A8
:100B80003837BD46B0BD00BF5C020020B801002070
:100B9000580200206102002080B584B000AF786068
:100BA0007B68032B01D9154B23E008F011FAF8609C
:100BB00013497A6813469B001344DB000B44183337
:100BC0009B7983F00103DBB2002B04D0F86808F0B6
:100BD0000FFA0C4B0DE00A497A6813469B00134448
:100BE000DB000B44183300221A71F86808F000FA91
:100BF000002318461037BD4680BD00BF021000F02C
:100C0000B8010020031000F080B586B000AF08F0F6
:100C1000DFF93861FFF730FDF860FB6823F003036C
:100C20001846FFF7F7FCFB6803F00203002B39D0EE
:100C30001F4B01221A70FFF7E1FC78610220FFF7D9
:100C4000F7FC7B691A021B4B1B681B02D31A1B0A99
:100C5000BB60B86800F032F800F0AEF9786900F0D7
:100C6000DDF9FFF7CBFC78617B691A02114B1B6839
:100C70001B02D31A1B0ABB60002009F065FB034668
:100C80001A020C4B1B681B02D31A1B0A7B600A4B0F
:100C90001B78002B03D0BA687B689A42CED8044BED
:100CA00000221A70386908F0A3F91837BD4680BDD4
:100CB000600200205802002061020020B0B586B01A
:100CC00000AF786000237B6153E1AD497A69134638
:100CD0009B001344DB000B44183300225A71A849CF
:100CE0007A6913469B001344DB000B4418331B79CD
:100CF000002B00F03B81A2497A6913469B00134404
:100D0000DB000B44D3E90023796808464FF000016B
:100D1000994208BF904219D299497A6913469B00BB
:100D20001344DB000B44D3E900017B681A464FF003
:100D30000003801A61EB0301914C7A6913469B0012
:100D40001344DB002344C3E900010FE18C497A69B5
:100D500013469B001344DB000B441833DB79002B54
:100D60000AD187497A6913469B001344DB000B4480
:100D7000183300221A71E4E07B6818464FF0000136
:100D80007F4C7A6913469B001344DB002344D3E96C
:100D90000023821A61EB0303C7E9022378497A69C9
:100DA00013469B001344DB000B440833D3E9004592
:100DB00073497A6913469B001344DB000B440833E4
:100DC000D3E90023D7E902010DF056FF204629465A
:100DD000801A61EB03016A4C7A6913469B00134445
:100DE000DB002344C3E9000165497A6913469B008F
:100DF0001344DB000B4410331B68002B50DD6049AB
:100E00007A6913469B001344DB000B441033596886
:100E10005B487A6913469B001344DB00034410339C
:100E20001B68194456487A6913469B001344DB003B
:100E300003441033596052497A6913469B001344A6
:100E4000DB000B4410335B68F32B7AD94C497A6989
:100E500013469B001344DB000B44D3E90023501CD2
:100E600043F10001464C7A6913469B001344DB00B2
:100E70002344C3E9000142497A6913469B001344A5
:100E8000DB000B4410335B68A3F1F4013C487A6942
:100E900013469B001344DB0003441033596050E0B9
:100EA00037497A6913469B001344DB000B44103327
:100EB000596833487A6913469B001344DB000344A6
:100EC00010331B68C91A2E487A6913469B001344D5
:100ED000DB0003441033596029497A6913469B00AB
:100EE0001344DB000B4410335B68F32B29D92449EE
:100EF0007A6913469B001344DB000B44D3E90023BB
:100F000012F1FF3043F1FF311D4C7A6913469B000B
:100F10001344DB002344C3E9000119497A691346ED
:100F20009B001344DB000B4410335B68A3F1F40116
:100F300013487A6913469B001344DB0003441033C3
:100F400059600F497A6913469B001344DB000B4438
:100F500018331B68002B09D009497A6913469B0096
:100F60001344DB000B44183301225A717B690133AF
:100F70007B617B69032B7FF7A8AE1837BD46B0BDF8
:100F8000B801002080B584B000AF78607B68002B8A
:100F90000FD0FFF733FBF860FFF730FB0346BB6071
:100FA000BB681A02FB681B02D31A1A0A7B689A42B2
:100FB000F2D31037BD4680BD90B583B000AF00239B
:100FC0007B6022E014497A6813469B001344DB00DF
:100FD0000B4418335B79002B14D00F497A68134601
:100FE0009B001344DB000B4418331C6878680A49E3
:100FF0007A6813469B001344DB000B4420331B68C4
:101000001946A0477B6801337B607B68032BD9DDE1
:101010000C37BD4690BD00BFB801002080B58AB036
:1010200000AF78604FF0FF324FF0FF33C7E906237F
:1010300000237B6227E037497A6A13469B001344FA
:10104000DB000B4418331B79002B19D031497A6A25
:1010500013469B001344DB000B44D3E90001D7E99E
:101060000623994208BF90420AD22A497A6A134657
:101070009B001344DB000B44D3E90023C7E906239C
:101080007B6A01337B627B6A032BD4DD224B002217
:101090001A70D7E90623B3F1FF3F08BFB2F1FF3F53
:1010A00035D0D7E90623C7E904231C4BFB60FB6856
:1010B0001A464FF00003D7E90401994208BF904255
:1010C00001D202460B46C7E90623154B1B7883F075
:1010D0000103DBB2002B05D07B6823F07F43114A6C
:1010E000136002E00F4A7B6813600220FFF792FA58
:1010F000BA697B68134423F07F430020194609F046
:1011000041F9054B01221A700220FFF7A3FA283794
:10111000BD4680BDB8010020610200209BFFFF009A
:10112000600200205802002080B483B000AF034664
:10113000FB71FB79002B03D0054B01221A6602E0FC
:10114000034B00221A660C37BD465DF8047B7047DE
:1011500000A0084080B483B000AF786000BF054BAA
:101160005A6E7B681340002BF9D10C37BD465DF8F1
:10117000047B704700A0084080B483B000AF786063
:101180000549054B9A6A7B68DB4313408B620C3739
:10119000BD465DF8047B704700A0084080B500AFF5
:1011A00000202849002208F029FF012025490022BB
:1011B00008F024FF02202349002208F01FFF03202B
:1011C0002049002208F01AFF04201E49002208F0DE
:1011D00015FF05201B49002208F010FF06201949C1
:1011E000002208F00BFF07201649002208F006FF36
:1011F0000020FF21002208F0BFFF0120FF21002274
:1012000008F0BAFF0220FF21002208F0B5FF0320FA
:10121000FF21002208F0B0FF0420FF21002208F087
:10122000ABFF0520FF21002208F0A6FF0620FF21CA
:10123000002208F0A1FF0720FF21002208F09CFFF8
:1012400080BD00BF00F00FF080B500AF0720264939
:10125000002208F0D3FE06202449002208F0CEFE2A
:1012600005202249002208F0C9FE04201F4900225F
:1012700008F0C4FE03201D49002208F0BFFE022032
:101280001A49002208F0BAFE01201849002208F08D
:10129000B5FE00204FF02041002208F0AFFE0720ED
:1012A0000721002208F068FF06200721002208F02D
:1012B00063FF05200721002208F05EFF04200721BC
:1012C000002208F059FF03200721002208F054FFF4
:1012D00002200721002208F04FFF012007210022F1
:1012E00008F04AFF00BF80BD00E00F5000E00FF0A3
:1012F00080B586B000AF786000237B612BE07A690F
:101300007B689A4202DA01233B6101E000233B61E2
:10131000144A7B69134403F588739B79FB60114A77
:101320007B69134403F588739B7ABB603B69002B90
:1013300007D0FA68BB6810461946012208F06CFD18
:1013400006E0FA68BB6810461946002208F064FD02
:101350007B6901337B617B69032BD0DD1837BD4688
:1013600080BD00BF34FB000080B584B000AF786062
:101370003960104A7B681344F8331B79FB600D4ACF
:101380007B681344F8335B7ABB603B68002B07D063
:10139000FA68BB6810461946012208F03DFD06E0D8
:1013A000FA68BB6810461946002208F035FD103770
:1013B000BD4680BD34FB000080B582B000AF03465F
:1013C000FB712548012107F02DFA2448032107F07D
:1013D0002BFC2348402107F00FF9012007F06CFD9A
:1013E0002048012107F01EFA4FF0FF30FFF7C4FE3E
:1013F0001D4808F093FC0820012108F0EDFC1020A6
:10140000012108F0E9FC8020012108F0E5FC4FF4FF
:101410008070012108F0E0FC4FF40070012108F019
:10142000DBFCFB79002B0DD04FF4402008F062FF6D
:101430004FF4803008F0AEFC0C4A0C4BDB6F43F0ED
:101440000803D367FFF7AAFE4FF0FF30FFF782FED5
:101450000837BD4680BD00BF0043020002001A00ED
:10146000600026000036280010FE000000800C40BE
:1014700080B58AB000AF78607B6842F20E7293420A
:1014800002DD42F20F737B607B6813F57A7F01DC2B
:101490003C4B7B607B68002B06DA78680DF0BAFE67
:1014A00078600123BB6101E00023BB614FF0FF3096
:1014B000FFF750FE0120FFF737FE00F06BF8012325
:1014C000FB6100233B6254E07A68FB6992FBF3F214
:1014D0002D4B83FB02139910D317C91A0B469B009F
:1014E0000B445B00D11A0B46FB82BB69012B04D174
:1014F0003B6A032B01D11023FB82FB8A234A32F87B
:101500001330BB8200237B6227E021493A6A1346ED
:10151000DB009B1A5B00CA187B6A1344C033DB7A7A
:101520003B611B493A6A1346DB009B1A5B00CA18F1
:101530007B6A1344C0331B79FB60BA8A7B6A42FA28
:1015400003F303F00103002B04D0F868396901228A
:1015500008F062FC7B6A01337B627B6A062BD4DD78
:10156000FA6913469B0013445B00FB613B6A01333D
:101570003B623B6A032BA7DD0020FFF7D5FD283730
:10158000BD4680BD19FCFFFF67666666ECFD000086
:1015900034FB000080B500AF01207821002208F064
:1015A000EBFD02207821002208F0E6FD03207821DF
:1015B000002208F0E1FD04207821002208F0DCFD83
:1015C00005207821002208F0D7FD0620782100228E
:1015D00008F0D2FD07207821002208F0CDFD00BFE1
:1015E00080BD00BF80B58AB000AF786078680DF02C
:1015F000B0FE0346BB6100233B624FF0FF30FFF7B4
:10160000A9FD0120FFF790FDFFF71EFE00233B62BE
:1016100046E03A6ABB699A4203DA7B681B787B62D0
:1016200001E020237B627B6A203B7B62214A7B6A4C
:1016300032F81330FB820023FB6128E01E493A6A2E
:101640001346DB009B1A9B00CA18FB69134408333E
:101650009B793B6118493A6A1346DB009B1A9B0051
:10166000FA6913440B441B78FB60FA8AFB6942FA5F
:1016700003F303F00103002B06D0FA683B69104620
:101680001946012208F0C8FBFB690133FB61FB69C5
:101690000D2BD3DD7B6801337B603B6A01333B62FA
:1016A0003B6A062BB5DD0020FFF73EFD2837BD461F
:1016B00080BD00BF34FD000034FB000080B584B065
:1016C00000AF7860FF23BB730023FB7317E07868DB
:1016D000302101F04FF80346BB7397F90E30012B10
:1016E00000D10FE097F90E30002B03DA97F90E3096
:1016F0009BB208E0FB7B0133FB7301F063FAFB7BD9
:10170000C72BE4D900231BB218461037BD4680BD55
:1017100080B584B000AF78600023FB6001F04AFA26
:1017200001F048FA01F046FA78680821002201F039
:101730000BF803461A46FB681344FB6078680921DE
:10174000002201F001F803461A46FB681344FB60CF
:10175000786800F0B3F903461A46FB681344FB604F
:1017600078680821002200F0EFFF03461A46FB6864
:101770001344FB6078680421002200F0E5FF034673
:101780001A46FB681344FB6078680521002200F0CC
:10179000DBFF03461A46FB681344FB6078680621AA
:1017A000002200F0D1FF03461A46FB681344FB6099
:1017B00078680321002200F0C7FF03461A46FB6841
:1017C0001344FB6078682121FF2200F0BDFF03462F
:1017D0001A46FB681344FB6078681821012200F068
:1017E000B3FF03461A46FB681344FB6001F0E2F9BD
:1017F00078680721172200F0A7FF03461A46FB6806
:101800001344FB60FB689BB21BB218461037BD4601
:1018100080BD00BF80B584B000AF78600B46FB7020
:1018200000237B737868202100F0A4FF0346FB812E
:10183000B7F90E30002B01DAFB8968E02DE07868FB
:10184000FFF73CFF03463B7397F90C30002B03D0A6
:1018500097F90C309BB25AE0FB78002B00D11FE0C7
:101860007868202100F086FF03463B7397F90C301F
:101870009BB2B7F90E201BB29A4200D110E097F943
:101880000C30002B03DA97F90C309BB23FE097F94C
:101890000C30FB817B7B01337B737B7BC72BCED9E9
:1018A000FB78786818211A4600F04EFF03463B7318
:1018B00097F90C30002B03D097F90C309BB226E03F
:1018C00000237B731FE0FB78002B00D11EE07868BB
:1018D000202100F04FFF03463B7397F90C309BB279
:1018E000B7F90E201BB29A4200D00FE097F90C30E6
:1018F000002B03DA97F90C309BB208E07B7B0133B5
:101900007B7301F05FF97B7BC72BDCD900231BB213
:1019100018461037BD4680BD80B582B000AF7860F4
:1019200078680021FFF776FF034618460837BD4662
:1019300080BD00BF80B582B000AF786078680521B7
:10194000FFF768FF034618460837BD4680BD00BF55
:1019500080B582B000AF786078680621FFF75AFF43
:10196000034618460837BD4680BD00BF80B582B02B
:1019700000AF786078680721FFF74CFF03461846F0
:101980000837BD4680BD00BF80B582B000AF78602B
:1019900078680F21FFF73EFF034618460837BD461B
:1019A00080BD00BF80B584B000AF78600B46FB708F
:1019B000FB7803F01F03DBB2803BFB73FB7B786893
:1019C0001946FFF727FF0346BB81B7F90C30002B00
:1019D00001D0BB8906E078682E2100F0CBFE0346DB
:1019E000BB81BB891BB218461037BD4680BD00BF06
:1019F00080B584B000AF78600B46FB701346BB70B7
:101A00007868FFF75BFE0346BB81B7F90C30002B0B
:101A100001D0BB893FE07868202100F0ABFE03468F
:101A20007B81BB783B72FB7803F01F03DBB2603B2A
:101A3000DBB27B7207F1080378681721022200F0FD
:101A4000AFFE0346BB81B7F90C30002B01D0BB8938
:101A500021E07868202100F08DFE0346FB810DE037
:101A60007868202100F086FE0346FB81B7F90E203E
:101A7000B7F90A309A4201D101F0A4F8B7F90E2063
:101A8000B7F90A309A42EBD0B7F90C30002B01DAE3
:101A9000BB8900E000231BB218461037BD4680BD4D
:101AA00080B582B000AF786078680B21FFF7B2FE96
:101AB000034618460837BD4680BD00BF80B584B0D8
:101AC00000AF786000237B730BE07868302100F072
:101AD00051FE03467B7397F90D30012B01D001F0C5
:101AE00071F897F90D30012BEFD10023FB7341E022
:101AF0000023BB7314E07868202100F03BFE03460E
:101B00007B7397F90D30002B00D10CE07868182119
:101B1000002200F019FEBB7B0133BB7301F052F8C9
:101B2000BB7BC72BE7D97868FFF7BAFF0023BB73ED
:101B30000FE07868202100F01DFE03467B7397F9C3
:101B40000D30002B00D007E0BB7B0133BB7301F0ED
:101B500039F8BB7BC72BECD97868202100F00AFE4E
:101B600003467B7397F90D30012B00D105E0FB7B19
:101B70000133FB73FB7BC72BBAD900231BB218467A
:101B80001037BD4680BD00BF80B485B000AF0346AE
:101B9000FB710023FB8100237B73FB79072B01D8AA
:101BA00000231CE0FB791B097B73FB799BB203F0DC
:101BB0000F039BB243F010039BB2FB817B7B032B93
:101BC00006D9FA897B7B043B02FA03F39BB206E059
:101BD000FA897B7BC3F1040342FA03F39BB21846F4
:101BE0001437BD465DF8047B704700BF80B487B0F2
:101BF00000AF78607B68002B01D1002315E07B6883
:101C000003F470631B0A7B617B69093B3B617B6862
:101C1000DBB2FB60FB6843F48073FB603B690C3311
:101C2000FA6802FA03F3FB60FB6818461C37BD46EE
:101C30005DF8047B704700BF80B584B000AF78606A
:101C4000084611461A460346FB700B46BB70134606
:101C50007B70FB78223B7B73BB78223B3B737B78AA
:101C6000002B11D17B7B7A6813441B789BB21B013C
:101C7000FB813B7B7A6813441B781B09DBB29AB269
:101C8000FB891344FB8112E07B7B7A6813441B7849
:101C90009BB21B02FB813B7B7A6813441B789AB290
:101CA000FB891344FB81FB89C3F30B03FB81FB8995
:101CB00040F6FF72934202D0FB89002B02D14FF015
:101CC000FF3304E0FB891846FFF790FF03461846F0
:101CD0001037BD4680BD00BF80B483B000AF7860D0
:101CE0000B46FB7097F90330002B07DD7B681A6801
:101CF00097F903309A407B681A6007E07B681A689E
:101D000097F903305B42DA407B681A600C37BD46B6
:101D10005DF8047B704700BF80B584B000AF786089
:101D20000B46FB707B68002B01D1002330E07B6801
:101D30001B68002B01D100232AE097F90330B3F18F
:101D4000FF3F07D0012B0AD10123FB734FF0004363
:101D5000BB6006E0FF23FB730123BB6001E00023AF
:101D600016E00023BB737B681A68BB681340002B26
:101D700002D000BFBB7B0BE0BB7BDBB20133DBB22D
:101D8000BB7397F90F3078681946FFF7A5FFEAE7AC
:101D90005BB218461037BD4680BD00BF80B586B027
:101DA00000AF78601A4B3B611A4BFB604FF4004365
:101DB000BB6078680121FFF7AFFF0346FB757B68C6
:101DC0001A683B691A403B699A4208D17B684FF018
:101DD00000421A60FB7D013BDBB2FB750BE07B68C8
:101DE0001A68BB681A447B681A607B681A68FB68CB
:101DF0001A407B681A60FB7D5B42DBB2DBB25BB2F0
:101E000078681946FFF768FF1837BD4680BD00BFE8
:101E10000080FFFF0000FFFF80B586B000AF786054
:101E20000023FB750023BB757B68002B02D14FF0AC
:101E3000FF3341E07B683B617B680433FB603B69B7
:101E40001B68B3F1FF3F08D0FB681B68B3F1FF3F8D
:101E500003D0FB681B68002B02D14FF0FF332BE04F
:101E60003869FFF79BFFF868FFF798FF3869012191
:101E7000FFF752FF0346FB75F8684FF0FF31FFF79D
:101E80004BFF0346BB753B691B68FA68126892B248
:101E9000B3FBF2F3BB60FB7D5B42DAB2BB7DD31ACE
:101EA000DBB21433DBB2DBB207F108025BB21046DF
:101EB0001946FFF711FFBB6818461837BD4680BDAD
:101EC00080B586B000AF78607B68002B02D14FF000
:101ED000FF332EE07B687B617B6804333B6178696C
:101EE000FFF75CFF3869FFF759FF78694FF0FF3162
:101EF000FFF712FF0346FB7338694FF0FF31FFF71E
:101F00000BFF0346BB737B691B683A69126802FBCF
:101F100003F3BB60FA7BBB7B1344DBB2143BDBB245
:101F2000DBB207F108025BB210461946FFF7D4FE98
:101F3000BB6818461837BD4680BD00BF80B485B069
:101F400000AF78607B680C331B789AB27B680D33E6
:101F50001B789BB21B029BB213449BB2FB81B7F967
:101F60000E3013F1020F09D0B3F1FF3F03D013F18C
:101F7000030F06D007E00023FB810AE00023FB816A
:101F800007E00123FB81FA896FF003039B1A9BB2E0
:101F9000FB8102237B73B7F90E207B7B9A4201DA27
:101FA000FB8901E04FF6FF731BB218461437BD469C
:101FB0005DF8047B704700BF80B586B000AF7860E5
:101FC0007868FFF7BBFF03467B82B7F91230002B1E
:101FD00002DA4FF480137B61B7F912300F4A5B01CC
:101FE000134410331B68BB60786828212922002322
:101FF000FFF722FE0346FB6007F108031846FFF7D0
:102000000BFF78617B69B3F1FF3F02D14FF480137E
:102010007B617B6918461837BD4680BD0C000020E7
:1020200080B586B000AF78607868FFF787FF034619
:102030007B82B7F91230002B02DA4FF480137B61F8
:10204000B7F912300F4A5B0113445B68BB607868D4
:10205000222125220123FFF7EFFD0346FB6007F154
:1020600008031846FFF7D8FE78617B69B3F1FF3F9C
:1020700002D14FF480137B617B6918461837BD4647
:1020800080BD00BF0C00002080B586B000AF786036
:102090007868222125220123FFF7CEFD0346FB604D
:1020A0007868232122220023FFF7C6FD03463B6107
:1020B00007F10C031846FFF7AFFE78617B69B3F1B7
:1020C000FF3F02D14FF468037B617B6918461837E4
:1020D000BD4680BD80B586B000AF786078682921A4
:1020E0002A220123FFF7A8FD0346FB60786823211D
:1020F00022220023FFF7A0FD03463B6107F10C03FA
:102100001846FFF789FE78617B69B3F1FF3F02D182
:102110004FF4C0037B617B6918461837BD4680BD0C
:1021200080B586B000AF78607868FFF707FF034698
:102130007B82B7F91230002B02DA4FF480137B61F7
:10214000B7F912300F4A5B01134418331B68BB60A8
:1021500078682B212C220023FFF76EFD0346FB60DD
:1021600007F108031846FFF757FE78617B69B3F162
:10217000FF3F02D14FF480137B617B69184618370B
:10218000BD4680BD0C00002080B584B000AF7860F3
:1021900039607B68002B02D03B68002B02D14FF6E0
:1021A000FF733BE07868FFF7B7FB0346FB81B7F9A5
:1021B0000E30002B02D04FF6FF732FE078682021FD
:1021C00000F0D8FA03467B737B7B002B01D000F034
:1021D000F9FC7B7B002BE5D178681821112200F0F7
:1021E000B3FA0346FB817868FFF768FAB7F90E3057
:1021F000002B02D04FF6FF7310E03B680C33786879
:102200002621022200F0E2FA0346FB81B7F90E30E4
:10221000002B02D04FF6FF7300E000231BB21846DC
:102220001037BD4680BD00BF80B58AB000AFF860F2
:10223000B9601346FB710023FB84FB68002B03D1BC
:102240004FF6FC73FB84E5E0BB68002B03D14FF62F
:10225000FC73FB84DEE0FB79012B2CD107F1140326
:10226000F86822210C2200F0B1FA0346FB84B7F98A
:102270002630002B03D04FF6FE73FB84CAE0002308
:1022800087F8253013E097F9253007F12802134429
:1022900013F8143C002B03D04FF6FF73FB84B9E016
:1022A00097F82530DBB20133DBB287F8253097F998
:1022B00025300B2BE7DDF868FFF72EFB0346FB8488
:1022C000B7F92630002B03D04FF6FE73FB84A1E054
:1022D000F868202100F04EFA034687F8243097F87A
:1022E0002430002B01D000F06DFC97F82430002B37
:1022F000E1D1F8681821122200F026FA0346FB8487
:10230000F868FFF7DBF9B7F92630002B03D04FF65A
:10231000FE73FB847EE0F868202100F02BFA034670
:1023200087F8243097F82430802B06D1F868FFF71F
:10233000F3FA4FF6FD73FB846CE097F824204FF618
:10234000F0731340002B03D04FF6FE73FB8461E063
:1023500097F82430012B01D000F034FC97F824309A
:10236000012BD8D107F11403F86822210C2200F0C8
:102370002DFA0346FB84B7F92630002B03D04FF625
:10238000FE73FB8446E007F11403F8681946FFF773
:10239000FBFE0346FB84B7F92630002B03D04FF633
:1023A000FE73FB8436E007F114031846FFF7B8FE0E
:1023B0000246BB681A6107F114031846FFF7FCFDDB
:1023C0000246BB681A6007F114031846FFF728FE9F
:1023D0000246BB685A6007F114031846FFF754FE23
:1023E0000246BB689A6007F114031846FFF7A6FD82
:1023F00003465B011833164A13441A1DBB685A6121
:1024000007F114031846FFF765FE0246BB68DA6061
:10241000002317E0BB684FF480121A60BB684FF4CA
:1024200080125A60BB684FF468029A60BB684FF430
:10243000C002DA60BB684FF480121A61BB680022E8
:102440005A61FB8C1BB218462837BD4680BD00BFC1
:102450000C00002080B58EB000AFF860B9607A60E3
:102460004FF480133B634FF48013FB627B685B691E
:10247000BB62BB68002B01D0BB68BB62BB6A002B90
:1024800002D14FF6FF7371E0F868002100F072F995
:10249000034687F8273097F92730322B04D0322BA8
:1024A00006DB453B022B03D8012387F8373003E0D6
:1024B000002387F8373000BF97F83730002B02D160
:1024C0004FF6FF7352E07B68002B0DD07B681B68D2
:1024D000002B02D07B681B683B637B685B68002B2A
:1024E00002D07B685B68FB62BB6A1B781A46BB6ADA
:1024F00001331B781B021344BB613B6BFB6107F18B
:1025000018031846FFF7DCFC38623B6ADBB23B7508
:102510003B6A03F47F431B0ADBB27B75BB6A023361
:102520001B781A46BB6A03331B781B021344BB613A
:10253000FB6AFB6107F118031846FFF7C1FC38621C
:102540003B6ADBB2BB753B6A03F47F431B0ADBB219
:10255000FB7507F11403F8681321042200F020F939
:10256000034687F8273097F927309BB21BB21846ED
:102570003837BD4680BD00BF80B485B000AF7860FD
:1025800039607B6803F10473DA003B6813449B00F5
:10259000FB60FB681B6818461437BD465DF8047B7A
:1025A000704700BF80B483B000AF78600649064B27
:1025B000D3F810217B68DB431340C1F810310C378E
:1025C000BD465DF8047B70470060004080B483B076
:1025D00000AF78600649064BD3F810217B6813439F
:1025E000C1F810310C37BD465DF8047B704700BF61
:1025F0000060004080B483B000AF7860044A7B681C
:10260000C2F818310C37BD465DF8047B704700BF37
:102610000060004080B582B000AF03463960FB71B6
:10262000FB79002B0DD0FB79012B0AD0FB79022B13
:1026300007D0FB79032B04D0FB79042B01D0FB7965
:10264000052BFA791346DB0013449B001C3303F17E
:10265000804303F5C04318463968FFF78DFF0346F2
:1026600018460837BD4680BD80B485B000AF78609D
:1026700039603B68FB60FB681B68012B03D1094B89
:1026800001221A7006E0FB681B68002B02D1054B83
:1026900000221A70002318461437BD465DF8047BEB
:1026A000704700BF7002002090B59FB000AF786007
:1026B000396007F11003FB6010233B740023A7F877
:1026C000763011E0B7F876300133B7F87620396804
:1026D0000A44127807F178010B4403F8682CB7F824
:1026E00076300133A7F87630B7F8764038680CF0CA
:1026F00030FE03469C42E5D338680CF02AFE0346C0
:10270000013307F178021344102203F8682C38686B
:102710000CF01FFE0346023307F1780213440D222A
:1027200003F8682CFC6838680CF013FE034603338A
:10273000812021461A46002301F0DAFD00231846C5
:102740007C37BD4690BD00BF80B582B000AF7860D9
:102750000B46FB701346BB70FA78BB78786811465D
:102760001A46012300F036FA034618460837BD46DC
:1027700080BD00BF80B584B000AF78600B46FB70B1
:10278000FA7807F10F03786811461A46012300F022
:1027900069FAFB7B9BB21BB218461037BD4680BD61
:1027A00080B586B002AFF8607B600B46FB721346C3
:1027B000BB72F97ABA7A01230093F8687B6800F05B
:1027C00097FA034618461037BD4680BD80B586B0DF
:1027D00002AFF8607B600B46FB721346BB72F97A5E
:1027E000BA7A01230093F8687B6800F0DDFA0346AB
:1027F00018461037BD4680BD80B500AF044B9B68BE
:10280000012202FA03F31846FFF7CCFE80BD00BF99
:102810006402002080B500AF0D4B5A790C4B9B68C9
:1028200010461946FFF7F6FE0346002B07D1084B6A
:102830009B68012202FA03F31846FFF7DBFE044B04
:102840009B68012202FA03F31846FFF7BFFE80BD22
:102850006402002090B58FB002AF78600B467B8099
:10286000384B1B8801339AB2364B1A8007F120048B
:1028700000230093786821210D22234600F094FA6A
:1028800097F82030786821211A46002300F0A2F939
:102890002C4B1B88BB817B88FB8100233B7497F802
:1028A00020307B7497F822301B029AB297F82130BF
:1028B0009BB213439BB29BB27B8297F824301B02DE
:1028C0009AB297F823309BB213439BB29BB2BB8260
:1028D00097F826301B029AB297F825309BB2134323
:1028E0009BB29BB2FB8297F828301B029AB297F8F2
:1028F00027309BB213439BB29BB23B8397F82A309D
:102900001B029AB297F829309BB213439BB29BB239
:102910007B8397F82C301B029AB297F82B309BB22E
:1029200013439BB29BB2BB8307F10C03184600F024
:102930008BF80346FB85FB8D1BB218463437BD462A
:1029400090BD00BF7202002080B485B000AF7860F7
:10295000134B1B88FB810023BB810DE0FB890133F6
:10296000FB81BB899BB201339BB2BB81FB89B3F571
:10297000877F01D10023FB810A4B1B88FA899A4289
:10298000ECD1B7F90C30084AA2FB03239B089BB299
:102990001BB218461437BD465DF8047B704700BF74
:1029A0008203002084030020398EE33880B584B090
:1029B00000AF786039600023FB813B68BB60FFF7A4
:1029C0001BFF1D4B1A881D4B1B889A4203D14FF6E3
:1029D000FF73FB8120E00023BB811AE0BB89BA684A
:1029E0001344154A12881146154A525CD2B21A7025
:1029F000114B1B8801339AB20F4B1A800E4B1B8868
:102A0000B3F5877F02D10C4B00221A80BB890133BA
:102A1000BB81BB89112BE1D9FFF7FCFE094B1B7869
:102A2000002B02D0B86804F003FFFB891BB21846E4
:102A30001037BD4680BD00BF820300208403002004
:102A4000740200207002002080B485B000AF78606E
:102A50007B68BB600023FB8119E01A4B1B88194679
:102A6000FB89BA6813441A78174B5A54154B1B88C4
:102A700001339AB2134B1A80124B1B88B3F5877F30
:102A800002D1104B00221A80FB890133FB81FB89A4
:102A9000112BE2D90D4B1A880A4B1B889A4208D198
:102AA0000A4B1B8812339AB2084B1A804FF6FF73F9
:102AB00000E000231BB218461437BD465DF8047BC6
:102AC000704700BF840300207402002082030020AE
:102AD00080B483B000AF7860064B00221A80064BAA
:102AE00000221A8000231BB218460C37BD465DF841
:102AF000047B7047820300208403002080B586B0E9
:102B000000AFF860B9607A600023FB827B681F4ADF
:102B10001A60FB681B681D4A1360FB681B795B0029
:102B2000DAB21A4B1A71FB685A79184B5A71FB6862
:102B30009B68164A93607B681B6818460021FFF764
:102B400019FE03467B75114B1B79C02B08D17B7D89
:102B5000462B05D07B7D472B02D04FF6FF73FB82BF
:102B60000A4B1B79B42B05D17B7D432B02D04FF64A
:102B7000FF73FB827B681B681846FFF7A9FFFB8A7F
:102B80001BB218461837BD4680BD00BF6402002046
:102B900080B483B000AF7860054BFF221A71002328
:102BA0001BB218460C37BD465DF8047B704700BF6A
:102BB0006402002080B500AF0A20FDF7B5FD00BF1C
:102BC00080BD00BF80B500AF0120FDF7ADFD00BFA7
:102BD00080BD00BF80B58CB000AF7860084611465C
:102BE0001A460346FB700B46BB7013467B707B781E
:102BF000002B01D0FFF700FE194B1B799BB2BB8263
:102C00000123FB82FB783B74BB787B7407F11003D4
:102C1000BB610223BB8307F10C033B620023BB842F
:102C20007B68FB62FB6A1A6807F1140310461946B9
:102C3000FDF78EFC034687F82B307B78002B01D004
:102C4000FFF7E8FD97F92B30002B03D097F92B30D5
:102C50009BB200E000231BB218463037BD4680BD52
:102C60006402002080B58CB000AFF8607A601A462C
:102C70000B46FB721346BB72BB7A002B01D0FFF7E9
:102C8000BBFD1A4B1B799BB2BB820423FB82FB7AF0
:102C90003B7407F11003BB610123BB837B683B627C
:102CA0000123BB84FB68FB62FB6A1A6807F114030B
:102CB00010461946FDF74CFC034687F82B30BB7ACB
:102CC000002B01D0FFF7A6FD97F92B30002B06D083
:102CD0007B68FF221A7097F92B309BB200E001232A
:102CE0001BB218463037BD4680BD00BF64020020CD
:102CF00080B590B000AFF8607B600B46FB72134666
:102D0000BB7297F84830002B01D0FFF775FD254BBB
:102D10001B799BB23B8401237B84FB7A3B750023A8
:102D2000FB630DE0FB6B0133FA6B79680A441278A0
:102D300007F140010B4403F82C2CFB6B0133FB63C0
:102D4000BA7AFB6B9A42EDDC07F114037B62BB7A23
:102D50009BB201339BB23B8507F11003FB6200235A
:102D60003B86FB68BB63BB6B1A6807F12003104608
:102D70001946FDF7EDFB034687F8373097F84830E2
:102D8000002B01D0FFF746FD97F93730002B03D019
:102D900097F937309BB200E000231BB2184640374A
:102DA000BD4680BD6402002080B58CB000AFF860E5
:102DB0007B600B46FB721346BB721C4B1B799BB2AC
:102DC000BB820423FB8297F83830002B01D0FFF739
:102DD00013FDFB7A3B7407F11003BB610123BB8336
:102DE0007B683B62BB7A9BB2BB84FB68FB62FB6A7D
:102DF0001A6807F1140310461946FDF7A9FB0346AC
:102E000087F82B3097F83830002B01D0FFF702FD00
:102E100097F92B30002B03D097F92B309BB200E0B1
:102E200000231BB218463037BD4680BD6402002027
:102E300080B584B000AF78600023FB60324B1B6824
:102E40001846FEF793FD304B1B6818462C21FFF700
:102E500091FC0346DBB27B727B7ADBB27B812A4B2F
:102E60001B6818462D21FFF785FC0346DBB27B72F9
:102E70007B7ADBB21B029AB27B8913439BB27B81C4
:102E8000214B1B6818462021FFF774FC0346DBB278
:102E90007B720FE01C4B1B68184618210022FFF7BD
:102EA00053FC194B1B6818462021FFF763FC0346AF
:102EB000DBB27B727B7ADBB2DBB25BB2002BE9DB8D
:102EC0007B8932339AB27B681A807B681B880F4AF1
:102ED000A2FB03235B099AB27B681A807B681B887C
:102EE0000A2B04D97B8932339AB27B681A80064B4D
:102EF0001B6818462121FF22FFF726FCFB681846B5
:102F00001037BD4680BD00BF880300201F85EB51F0
:102F100080B584B000AF78600023FB817B68012B13
:102F20000DD1104B1B68184612212022FEF760FDC0
:102F300003469AB2FB8913449BB2FB810CE0094B18
:102F40001B68184612210022FEF752FD03469AB272
:102F5000FB8913449BB2FB81B7F90E30184610373A
:102F6000BD4680BD8803002080B58AB000AF786080
:102F700039600023FB843B681B68494A13607B6807
:102F8000002B0AD0464B1B681846FEF7C1FB0346D0
:102F90009AB2FB8C13449BB2FB84414B1A6807F135
:102FA0000C03104619460022FFF73EF93C4B1A6805
:102FB00007F10C03104600211A46FFF74BFA7B6815
:102FC000002B4DD0364B1B68184601218022FEF79E
:102FD0000FFD03469AB2FB8C13449BB2FB84304B2B
:102FE0001B68184604210122FFF7AEFB03469AB284
:102FF000FB8C13449BB2FB84294B1B6818460C21A5
:103000002422FEF7F5FC03469AB2FB8C13449BB2D4
:10301000FB84234B1B68184607210022FEF7E8FCBF
:1030200003469AB2FB8C13449BB2FB841C4B1B6877
:10303000184608210022FEF7DBFC03469AB2FB8CFF
:1030400013449BB2FB84164B1B68184609210022CF
:10305000FEF7CEFC03469AB2FB8C13449BB2FB8472
:103060000F4B1B6818461F212022FEF7C1FC0346A8
:103070009AB2FB8C13449BB2FB84094B1B68184625
:1030800012212022FEF7B4FC03469AB2FB8C1344B3
:103090009BB2FB84B7F9263018462837BD4680BD61
:1030A0008803002080B58CB000AFF8607A601A46C3
:1030B0000B46FB721346BB72FB7A9BB23B83042325
:1030C0007B83BB7A3B7407F11003FB6101233B84D4
:1030D00007F114037B6202233B8507F11803F868AC
:1030E0001946FDF735FA034687F82F3097F92F3048
:1030F000002B05D07B6800221A6097F92F3008E07A
:103100003B7D1A027B7D03F0FC031A447B681A6046
:10311000022318463037BD4680BD00BF80B586B05B
:1031200000AFF8607A603B600B46FB72FB7AF86890
:1031300019467A68E523FFF7B5FF78617B69022BB2
:1031400017D17B681B6843F6095202FB03F35B0B44
:10315000A3F5BB53103B7A681360FB7AF8681946F5
:103160003A68E023FFF79EFF78617B69022B11D15B
:1031700002E04FF0FF330FE03B681B6845F2CD5291
:1031800002FB03F35B13A3F53743023B3A6813607A
:10319000002301E04FF0FF3318461837BD4680BDCD
:1031A00080B58EB000AFF8600B467A60FB72FB7A98
:1031B0009BB23B8404237B84FC233B75C9237B7532
:1031C00007F114037B6202233B8507F11803FB62BE
:1031D00008233B8607F12003F8681946FDF7B8F984
:1031E000034687F8373097F93730002B01D000239A
:1031F00006E07B68002B02D03A7E7B681A700123C0
:1032000018463837BD4680BD80B582B000AF034652
:10321000FB71FB791846FEF7CFF80837BD4680BD35
:1032200080B500AFFDF7BAFF054B1B78002B03D02C
:103230000120FEF75DF802E00420FEF759F880BD9A
:103240008C03002080B584B000AF03463960FB7169
:103250001346BB71FFF7E4FFBB7983F00103DBB2D8
:10326000002B02D02B4B00221A600023FB732A4B49
:103270001B68032B03D1284B04221A6004E0264B61
:103280001B68013B244A13603B68002B02D1FB7989
:10329000002B05D0204B1B6818460121FEF764F86F
:1032A000BB7983F00103DBB2002B14D0FB79002B38
:1032B00006D03B68002B03D11848FEF793F908E0CD
:1032C0001748FEF78FF93B68002B02D03868FEF7ED
:1032D000CFF801231AE0134B1B680E4A12681344FF
:1032E00007F108021046194607220BF0D1FF07F13B
:1032F00008031846FEF776F9064B1B685A1C054969
:103300000A60102B01DD012300E00023184610376E
:10331000BD4680BD900300205000002064FE0000E8
:103320006CFE00004C00002080B584B000AF034666
:103330003960FB711346BB71FFF772FFBB7983F0F5
:103340000103DBB2002B02D02B4B00221A600023BA
:10335000FB732A4B1B68032B03D1284B04221A60F2
:1033600004E0264B1B68013B244A13603B68002B9A
:1033700002D1FB79002B05D0204B1B681846012198
:10338000FDF7F2FFBB7983F00103DBB2002B14D011
:10339000FB79002B06D03B68312B03DC1848FEF785
:1033A00021F908E01748FEF71DF93B68322B02DDD2
:1033B0003868FEF75DF801231AE0134B1B680E4ACC
:1033C0001268134407F108021046194607220BF051
:1033D0005FFF07F108031846FEF704F9064B1B6868
:1033E0005A1C05490A60102B01DD012300E000236F
:1033F00018461037BD4680BD9403002054000020BD
:1034000064FE000074FE00004C00002080B483B015
:1034100000AF0346FB71044AFB7913700C37BD46BD
:103420005DF8047B704700BF8C03002080B586B038
:1034300000AF7860FFF7F4FE7A681346DB001344B0
:103440000F4A82FB03125210DB17D31A03F5FA431B
:103450007B6007F10C031846796800F0F1F807F17A
:103460000C03184607490BF065FF00233B7507F175
:103470000C031846FEF7B6F81837BD4680BD00BFEE
:10348000676666667CFE000080B586B000AF786037
:10349000FFF7C6FE07F10C031846796800F0D0F874
:1034A00007F10C03184606490BF044FF00233B7557
:1034B00007F10C031846FEF795F81837BD4680BD96
:1034C00080FE000080B500AFFFF7AAFE0148FEF7BE
:1034D00089F880BD84FE000080B584B000AFB9607B
:1034E0007A601A460346FB731346BB73FFF798FED8
:1034F000BB7B002B03D01D48FEF774F802E01C488C
:10350000FEF770F84FF47A70FDF70EF9FB7B012B94
:1035100003D11848FEF766F805E0FB7B022B02D1C9
:103520001548FEF75FF84FF47A70FDF7FDF8134881
:10353000FEF758F84FF47A70FDF7F6F8B868FEF722
:1035400051F84FF47A70FDF7EFF80D48FEF74AF89E
:103550004FF47A70FDF7E8F87868FEF743F84FF417
:103560007A70FDF7E1F81037BD4680BD8CFE000093
:1035700094FE00009CFE0000A4FE0000ACFE0000D3
:10358000B4FE000080B588B000AF7860FFF748FE59
:1035900052233B7248237B720023BB727B6807F186
:1035A00014021046194600F04BF807F1080207F123
:1035B0001403104619460BF0BDFE00233B7407F1BF
:1035C00008031846FEF70EF82037BD4680BD00BF41
:1035D00080B586B000AF7860FFF722FE55233B73BD
:1035E00056237B733A23BB732023FB737B680A2B20
:1035F00006D931233B7431237B742B23BB7414E035
:1036000020233B747B680A2B06D131233B74302383
:103610007B742023BB7408E020233B747B68DBB2FF
:103620003033DBB27B742023BB7400233B7507F17E
:103630000C031846FDF7D6FF1837BD4680BD00BF06
:1036400080B485B000AF786039600023FB603B68D0
:10365000002B0BDA3B685B423B60FB685A1CFA604C
:103660001A467B6813442D221A7007E0FB685A1C27
:10367000FA601A467B68134420221A70FB687A6845
:10368000D1183A68494B83FB02039814D317C31A25
:10369000474800FB03F3D31A464A82FB0302521346
:1036A000DB17D31ADBB23033DBB20B70FB687A68FE
:1036B00013441B78302B02D0FB680133FB60FB689E
:1036C0007A68D1183A683B4B83FB02035813D3172F
:1036D000C31A394800FB03F3D31A384A82FB0302AA
:1036E0001213DB17D31ADBB23033DBB20B70FB687B
:1036F0007A6813441B78302B07D1FB68012B04D167
:10370000FB687A68134420221A70FB680133FB605F
:10371000FB685A1CFA601A467B6899183A68274B6E
:1037200083FB02031813D317C31A42F2107000FB75
:1037300003F3D31A224A82FB03029211DB17D31A36
:10374000DBB23033DBB20B70FB685A1CFA601A46EE
:103750007B6813442E221A70FB685A1CFA601A46C2
:103760007B6899183A68164B83FB02039811D317AC
:10377000C31A4FF47A7000FB03F3D31A114A82FB89
:1037800003025211DB17D31ADBB23033DBB20B70FA
:10379000FB685A1CFA601A467B68134400221A70B0
:1037A0001437BD465DF8047B704700BF83DE1B43C2
:1037B00040420F0089B5F814A0860100AD8BDB688C
:1037C000D34D62101F85EB5180B483B000AF034628
:1037D000FB71084997F907305B09FA7902F01F027B
:1037E000012000FA02F241F823200C37BD465DF8B3
:1037F000047B704700E100E080B483B000AF034673
:10380000FB71094997F907305B09FA7902F01F0249
:10381000012000FA02F2603341F823200C37BD4644
:103820005DF8047B704700BF00E100E080B400AFAA
:103830000749074B03F5703308331B6823F0010277
:1038400001F5703308331A60BD465DF8047B70479C
:1038500000400C4080B400AF0749074B03F57033BC
:1038600008331B6843F0010201F5703308331A6016
:10387000BD465DF8047B704700400C4080B400AF4B
:10388000064B5B6803F00103002B14BF01230023E8
:10389000DBB21846BD465DF8047B704700400C4023
:1038A00080B400AF084B03F57033183300221A6060
:1038B000054B03F5703318334FF4C0521A60BD4600
:1038C0005DF8047B704700BF00400C4080B584B0B9
:1038D00000AF78600023FB7307F10C03786819468A
:1038E00000F010F80346002B07D1BB8903F0010359
:1038F000002B14BF01230023FB73FB7B18461037FA
:10390000BD4680BD80B487B000AF78603960FF23CA
:10391000FB757B681B78002B20D07B689B785A0155
:10392000224B13441B683B613B6903F44023FB605B
:10393000FB68B3F5402F03D0FB68B3F5002F2DD102
:103940003B6903F40013002B14BF01230023DBB2F7
:103950009AB23B681A800023FB751FE07B689B7856
:103960005A01134B13441B683B613B6903F440232A
:10397000FB60FB68B3F5402F03D0FB68B3F5002F65
:103980000CD13B6903F40013002B14BF0123002367
:10399000DBB29AB23B681A800023FB75FB7D5BB2F9
:1039A00018461C37BD465DF8047B7047000910407F
:1039B000000B104080B483B000AF7860054B7A688C
:1039C00003F5723303F58A731A600C37BD465DF850
:1039D000047B704700400C4080B483B000AF786037
:1039E000054B7A6803F5723303F545731A600C379B
:1039F000BD465DF8047B704700400C4080B483B046
:103A000000AF7860396010497B6843F4002201F50B
:103A1000723303F588731A600B490B4B03F572334D
:103A200003F580731B6823F03C423B68134343F06B
:103A3000044201F5723303F580731A600C37BD46FA
:103A40005DF8047B704700BF00400C4080B483B039
:103A500000AF7860396010497B6843F4002201F5BB
:103A6000723303F544731A600B490B4B03F5723341
:103A700003F540731B6823F03C423B68134343F05B
:103A8000044201F5723303F540731A600C37BD46EA
:103A90005DF8047B704700BF00400C4080B485B0E7
:103AA00000AF78607B681B69002B04D10123FB60A9
:103AB0000023BB600DE07B681B697A689289134420
:103AC000013B7A689289B3FBF2F3FB607B681B6968
:103AD000BB607B689B785A01164B13447A689278D6
:103AE0005101144A0A44126902F00041BA681143B4
:103AF000FA68D2040A431A617B689B785A010D4B1D
:103B000013447A6892685A617B689B785A01094B22
:103B100013447A6892785101064A0A44126822F0E6
:103B20003C4242F004421A601437BD465DF8047B03
:103B3000704700BF0009104080B485B000AF7860C6
:103B40007B681B69002B05D10123FB607B689B8987
:103B5000BB6011E07B681B697A6892891344013B62
:103B60007A689289B3FBF2F3FB607B689B891A4603
:103B7000FB6803FB02F3BB607B689B785A01184B20
:103B800013447A6892785101154A0A44126902F086
:103B90006041BA681143FA68D2040A431A617B682B
:103BA000BA689A617B689B785A010D4B13447A6816
:103BB00092685A617B689B785A01094B13447A6872
:103BC00092785101064A0A44126822F03C4242F0BF
:103BD00004421A601437BD465DF8047B704700BF8D
:103BE000000B104080B582B000AF78607B689B7896
:103BF000002B03D1786800F007F802E0786800F045
:103C000041F80837BD4680BD80B584B000AF78600C
:103C10007B681B78002B1FD07B681B69002B02D1AF
:103C20007B6801225A707B689B681846FFF7C2FECA
:103C30007B681B69FB607B689B897B817A89FB6859
:103C40009A4228BF1A460E4B1B68D3F8F430104630
:103C50001946FFF7D3FE0FE07B689B681846FFF715
:103C6000BBFE7B689B891A46054B1B68D3F8F43072
:103C700010461946FFF7EAFE1037BD4680BD00BF6B
:103C80005800002080B582B000AF78607B681B7858
:103C9000002B03D07868FFF701FF02E07868FFF798
:103CA0004BFF0837BD4680BD80B485B000AF0346EA
:103CB000FB710023BB60FB795BB2002B09DA194B67
:103CC0001A68FB7903F00F03134493F8D430FB60B8
:103CD00008E0144B1A68FB7903F00F03134493F8C0
:103CE000E430FB60FB68002B0BD00E4B1968FA68C0
:103CF00013469B001344DB0030330B440433BB609A
:103D000008E0FB7903F00F03002B03D1054B1B6880
:103D10003433BB60BB6818461437BD465DF8047B7E
:103D2000704700BF5800002080B400AF044B1B68F0
:103D300093F820301846BD465DF8047B704700BFFD
:103D40005800002080B58EB000AF7860112004F0DC
:103D5000BDFE0346042B03D01120042104F064FFB0
:103D600000200121002205F0C5F803F0A7FB844BD9
:103D70001B6818460021F8220BF0B0FA804B1B6834
:103D80007F4A126804321A607D4B1B687A68126899
:103D90005A627B4B1B687A6852689A62784B1B6840
:103DA0007A689268DA62764B1B687A68127B9A7737
:103DB000734B1B68072283F82020714B1B6800227D
:103DC00083F821206E4B1B68002283F822206C4B65
:103DD0001B687A6852691A63694B1B6800225A771C
:103DE000674B1B683433BB61BB6900221A70BB6927
:103DF00000229A60BB6900229A70BB690122DA81B5
:103E0000BB690022DA70BB6900221A71BB6900220B
:103E10005A717B681B68DB799AB2BB699A81BB696E
:103E20009B89202B05D1564B1B680122C3F8F42037
:103E30000CE0BB699B89402B05D1514B1B680022CC
:103E4000C3F8F42002E06FF003037AE1BB690022BB
:103E50001A61BB6900225A61BB69002283F82020E5
:103E6000BB6900225A62BB699B899B089BB21A46B8
:103E7000BB69DA61BB69DB697A681269127802FB97
:103E800003F37B62BB69DB6901337A6812691278DC
:103E900002FB03F3BB6200237B6300233B6200232E
:103EA000FB61374B1B689B6AFB62354B1B689B6A47
:103EB0005B889BB21A46FB6A13447B61012387F837
:103EC0003330E1E0FB6A1B78002B02D16FF0030373
:103ED00037E1FB6A01331B78052B40F0B4807B6B24
:103EE00001337B63FB6A3B61254B19687A6B134690
:103EF0009B001344DB0030330B440433BB613B694C
:103F00009B78DBB2DB09DAB2BB691A70BB690022AD
:103F10009A603B699A78BB69DA70BB69DB7803F019
:103F20000F03DAB2BB699A70BB699B781A4601230A
:103F300093409AB2BB69DA813B69DB7803F00303F3
:103F4000DAB2BB691A713B699B889AB2BB699A81E4
:103F5000BB6900221A61BB6900225A61BB69002259
:103F600083F82020BB6900225A627B681A697B6B48
:103F700013441B78002B05D16FF00303E1E000BF71
:103F800058000020BB691B78002B31D03B6A0133FD
:103F90003B6297F833305A1C87F83320BA69537163
:103FA000BB699B890333002B00DA03339B1019464E
:103FB0007B681A697B6B13441B7803FB01F31A4679
:103FC000BB69DA61614B1B68BA69927811467A6BFA
:103FD000D2B20B4483F8D420BB69DB697A6A1344FC
:103FE0007B62BB699B78062B48D96FF00303A8E07E
:103FF000FB690133FB61BB699B890333002B00DA4A
:1040000003339B1001337A6811697A6B0A44127882
:1040100002FB03F31A46BB69DA614C4B1B68BA69B1
:10402000927811467A6BD2B20B4483F8E420BB69D4
:10403000DB69BA6A1344BB62BB699B78062B1DD946
:104040006FF003037DE0FB6A01331B78042B15D16D
:10405000FB6AFB60FB68DB78002B0FD13B4B1B68D6
:10406000DA7FFB689B789A4202D06FF0030368E026
:10407000364B1B68DA7F0132D2B2DA77FB6A1B78E3
:104080001A46FB6A1344FB62FA6A7B699A42FFF4A0
:1040900019AFBB6A1933BB622C4B1B689B6A1A7938
:1040A0002A4B1B68DB7F9A4202D06FF0030348E083
:1040B0007B6B032B02D06FF0030342E03B6A062BBD
:1040C00002D96FF003033CE0FB69062B02D96FF0C5
:1040D000030336E004F07CFFB8601D4A1C4B1B6CE8
:1040E00043F00C0313641B48092104F09DFDFFF706
:1040F0009DFBB86A796A02F069FC0346002B0FD178
:10410000FFF7CEFBFFF7A6FB0520FFF775FB0520A9
:10411000FFF75AFBFFF7B2FB0346002B0AD005E07E
:10412000B86804F065FF6FF003030AE0022000F0B6
:10413000A7F802E0002000F0A3F8B86804F058FFE8
:10414000002318463837BD4680BD00BF5800002008
:1041500000800C400723220080B586B000AFF860D5
:10416000B9607A603B60FB68DBB21846FFF79CFDE4
:1041700078617B69002B02D16FF0030369E07B68F3
:10418000B3F5002F08DA7B699B891A467B6893FB9D
:10419000F2F3B3F5806F02DB6FF0030359E0BB6805
:1041A00003F00303002B02D06FF0030351E004F08F
:1041B0000FFF38617869FFF789FB0346002B05D0B4
:1041C000386904F015FF6FF0040342E07B6993F84F
:1041D0002030002B05D0386904F00AFF6FF001038E
:1041E00037E07B699B78002B0AD0FFF79DFD0346E3
:1041F000052B05D0386904F0FBFE6FF0080328E0BA
:104200007B69BA689A607A687B691A617B69002267
:104210005A617B699B78002B03D17B6900221A705D
:1042200009E07B691B78002B05D0386904F0E0FEBB
:104230006FF003030DE07B69022283F820207B6985
:104240003A685A627869FFF7CDFC386904F0D0FE0D
:10425000002318461837BD4680BD00BF80B400AFAC
:10426000064B1B78DBB2002B14BF01230023DBB20B
:104270001846BD465DF8047B704700BFA0040020CF
:1042800080B584B000AF0346FB71184B1B6893F8F0
:104290002030FB73FB79062B04D1144B1B68FA7B8F
:1042A00083F82120114B1B68104A126892F82020D5
:1042B00083F822200D4B1B68FA7983F820200B4BE2
:1042C0001B681B6B5B68002B0CD0FA7BFB799A4256
:1042D00008D0064B1B681B6B5B68F97BFA790846B4
:1042E000114698471037BD4680BD00BF58000020DA
:1042F00080B586B000AFF860B9607A603B60FB685B
:10430000DBB21846FFF7D0FC78617B69002B02D145
:104310006FF003036CE07B68B3F5002F08DA7B696C
:104320009B891A467B6893FBF2F3B3F5806F02DB3F
:104330006FF003035CE0BB6803F00303002B02D0C3
:104340006FF0030354E004F043FE38617869FFF72F
:10435000BDFA0346002B05D0386904F049FE6FF022
:10436000040345E07B6993F82030002B05D03869C1
:1043700004F03EFE6FF001033AE07B699B78002B6E
:104380000AD0FFF7D1FC0346052B05D0386904F0AD
:104390002FFE6FF008032BE07B69BA689A607A6899
:1043A0007B691A617B6900225A617B699B78002BCB
:1043B00003D17B6901221A700CE07B691B7883F0C2
:1043C0000103DBB2002B05D0386904F011FE6FF059
:1043D00003030DE07B69012283F820207B693A68A2
:1043E0005A627869FFF7FEFB386904F001FE00238A
:1043F00018461837BD4680BD80B485B000AF7860E0
:104400000B46FB70FB78002B03D07B68002283F8FF
:1044100020207B681B78002B30D07B68DB89FB6019
:104420007B689B785A01344B13441B6823F070530C
:10443000BB60BB6803F40043002B13D1BA682F4B59
:1044400013407A68928913437A681279920413436D
:104450007A6852799205134343F0C05343F4004302
:10446000BB6003E0BB6843F08053BB607B689B7814
:104470005A01214B1344BA681A602CE07B68DB892F
:104480001B04FB607B689B785A011D4B13441B681F
:1044900023F07053BB60BB6803F40043002B0FD1C3
:1044A000BA68184B13407A68928913437A68127974
:1044B0009204134343F0C05343F40043BB6003E052
:1044C000BB6843F08053BB607B689B785A010C4B00
:1044D0001344BA681A600C490B4B03F572331C3352
:1044E0001A68FB681A4301F572331C331A601437DB
:1044F000BD465DF8047B70470009104000F813FCCE
:10450000000B104000F8D3FF00400C4080B485B091
:1045100000AF78607B681B78002B0AD07B689B78A3
:104520005A01124B134400221A607B68DB89FB603E
:104530000AE07B689B785A010D4B134400221A60F5
:104540007B68DB891B04FB600A490A4B03F5723365
:104550001C331A68FB68DB431A4001F572331C33C5
:104560001A601437BD465DF8047B7047000910409F
:10457000000B104000400C4080B487B000AF786062
:104580003960FF23FB757B681B78002B20D07B688C
:104590009B785A01224B13441B683B613B6903F42F
:1045A0004023FB60FB68B3F5402F03D0FB68B3F5F5
:1045B000002F2DD13B6903F40013002B14BF0123FE
:1045C0000023DBB29AB23B681A800023FB751FE020
:1045D0007B689B785A01134B13441B683B613B6912
:1045E00003F44023FB60FB68B3F5402F03D0FB6866
:1045F000B3F5002F0CD13B6903F40013002B14BF5B
:1046000001230023DBB29AB23B681A800023FB75BA
:10461000FB7D5BB218461C37BD465DF8047B7047D6
:1046200000091040000B104080B483B000AF034677
:10463000FB710949084B03F572331B6823F4FE63D1
:10464000FA7912011A4301F572331A600C37BD462C
:104650005DF8047B704700BF00400C4080B487B019
:1046600000AF7860FF23FB747B681B78002B23D09E
:104670007B689B785A01224B13441B6823F07053CC
:104680007B617B6903F44023FB60FB68B3F5802FFB
:104690002ED07B69002B03DA7B6943F080437B617A
:1046A0007B689B785A01164B13447A6942F40012D6
:1046B0001A600023FB741BE07B689B785A01114B46
:1046C00013441B6823F070537B617B6903F4402320
:1046D000FB60FB68B3F5802F0AD07B689B785A019A
:1046E000084B13447A6942F400121A600023FB74E9
:1046F000FB7C5BB218461C37BD465DF8047B7047F7
:1047000000091040000B104080B487B000AF786003
:10471000FF23FB757B681B78002B26D07B689B787A
:104720005A01294B13441B6823F070533B613B69CA
:1047300003F44023FB60FB68B3F5402F03D0FB6814
:10474000B3F5002F37D13B6943F080533B613B69A0
:1047500023F400133B617B689B785A011A4B134486
:104760003A691A600023FB7525E07B689B785A0143
:10477000164B13441B6823F070533B613B6903F4F1
:104780004023FB60FB68B3F5402F03D0FB68B3F513
:10479000002F10D13B6943F080533B613B6923F408
:1047A00000133B617B689B785A01084B13443A69BC
:1047B0001A600023FB75FB7D5BB218461C37BD46B3
:1047C0005DF8047B704700BF00091040000B1040EB
:1047D00080B584B000AF0346FB710123FB6011E09C
:1047E0000B4B1968FA6813469B001344DB00303307
:1047F0000B441A1DFB7910461946FFF7FDFDFB68B7
:104800000133FB60FB68032BEADD1037BD4680BD3A
:104810005800002080B584B000AF0346FB7101232F
:10482000FB6015E0104B1968FA6813469B001344AF
:10483000DB0030330B440433BB60BB6893F820309B
:10484000002B02D1B868FFF761FEFB680133FB6003
:10485000FB68032BE6DD97F90730184602F026FCCB
:104860001037BD4680BD00BF5800002080B485B021
:1048700000AF0346FB710023BB60FB795BB2002BEA
:1048800009DA194B1A68FB7903F00F03134493F804
:10489000D430FB6008E0144B1A68FB7903F00F0377
:1048A000134493F8E430FB60FB68002B0BD00E4BF5
:1048B0001968FA6813469B001344DB0030330B443D
:1048C0000433BB6008E0FB7903F00F03002B03D136
:1048D000054B1B683433BB60BB6818461437BD46B4
:1048E0005DF8047B704700BF5800002080B584B09D
:1048F00000AF78607B681B68BB607B681B6B9B6844
:10490000002B0BD07B681B6B9B68B8689847F860DE
:10491000FB6813F1030F01D0FB6858E04FF0FF3341
:10492000FB60BB681B7803F06003DBB2002B4DD14A
:10493000BB685B780B2B48D801A252F823F000BF6C
:10494000714900007B490000CB4900008549000007
:10495000CB4900008F49000099490000CB49000075
:10496000A3490000AD490000B7490000C14900005B
:10497000786800F0A7F9F86028E0786800F02CF873
:10498000F86023E0786800F03DFBF8601EE078688E
:1049900000F062FAF86019E0786800F0D1F8F86089
:1049A00014E0786800F07AF8F8600FE0786800F0BA
:1049B000A9FAF8600AE0786800F03EF9F86005E0CE
:1049C000786800F099FBF86000E000BFFB681846CB
:1049D0001037BD4680BD00BF80B586B000AF78609F
:1049E0004FF0FF337B617B681B683B613B69DB8871
:1049F0009BB2002B02D04FF0FF334AE03B691B789B
:104A0000C3F30403DBB2002B02D0022B22D03FE021
:104A10003B699B889BB2002B1BD13B695B889BB297
:104A2000012B16D17B6893F82030042B04D07B68CF
:104A300093F82030052B0CD17B689B6ADB7903F05F
:104A40002003002B05D07B6800225A7700237B616E
:104A50001EE01DE03B699B889BB2DBB21846FFF766
:104A600005FFF860FB68002B12D0FB689B78002BD9
:104A70000ED03B695B889BB2002B09D17B6893F811
:104A80002030052B04D1F868FFF73EFE03467B611A
:104A90007B6918461837BD4680BD00BF80B586B01B
:104AA00000AF78604FF0FF337B617B681B683B6130
:104AB000224BFB603B699B889BB2002B17D13B6963
:104AC000DB889BB2012B12D13B695B889BB2002B28
:104AD0000DD13B691B7823F07F03DBB2002B06D09E
:104AE0003B691B7803F01F03DBB2002B02D04FF0B1
:104AF000FF331EE07B6893F82030042B0AD1FB685B
:104B000000221A700020F96801220023FFF7F0FB51
:104B100078610DE07B6893F82030052B08D17B6825
:104B20001C330020194601220023FFF7E1FB7861C6
:104B30007B6918461837BD4680BD00BF9004002031
:104B400080B58AB000AF78600023FB8400233B620D
:104B50004FF0FF33FB617B681B68BB61BB691B784F
:104B600003F01F03DBB2002B06D1BB691B7823F0D7
:104B70007F03DBB2002B02D14FF0FF3357E0BB695C
:104B80005B889BB2DBB27B61BB695B889BB21B0A13
:104B90009BB2022B0FD0032B1CD0012B2ED17B6993
:104BA000002B00D02AE07B685B6A3B627B685B6A13
:104BB0001B78FB8422E07B69002B00D01EE07B6821
:104BC0009B6A3B627B689B6A9A78DB781B02134383
:104BD000FB8413E07B689B7F1A467B699A420CDD5D
:104BE0007B68DA6A7B699B0013441B683B613B6905
:104BF0003B623B691B78FB84FFE700BFFB8C002B0B
:104C000014D0FB8CFB81BB699A79DB791B021343BF
:104C1000BB81BA89FB89934228BF13469BB200200F
:104C2000396A1A460023FFF763FBF861FB691846EF
:104C30002837BD4680BD00BF80B586B000AF786024
:104C40004FF0FF337B617B681B683B611C4BFB6053
:104C50003B699B889AB27B68DB7F9BB29A4217D2F2
:104C60003B69DB889BB2012B12D13B695B889BB20D
:104C7000002B0DD13B691B7823F07F03DBB2002BA7
:104C800006D03B691B7803F01F03DBB2012B02D077
:104C90004FF0FF330FE07B6893F82030052B09D1EC
:104CA000FB6800221A700020F96801220023FFF738
:104CB0001FFB78617B6918461837BD4680BD00BF71
:104CC0009004002080B586B000AF78604FF0FF33CD
:104CD0007B617B681B683B615E4BFB603B695B886B
:104CE0009BB2002B0BD13B69DB889BB2022B06D118
:104CF0003B691B7823F07F03DBB2002B02D14FF01E
:104D0000FF33A2E03B691B78C3F30403DBB2012B42
:104D10004CD0022B6DD0002B40F096803B699B88D5
:104D20009BB2002B41D17B6893F82030042B04D038
:104D30007B6893F82030052B37D1FB6800221A805E
:104D40007B685B7F002B06D0FB681B8843F0020367
:104D50009AB2FB681A807B681B6BDB68002B0ED055
:104D60007B681B6BDB6898470346002B15D0FB68FC
:104D70001B8843F001039AB2FB681A800DE07B6840
:104D80009B6ADB7903F04003002B06D0FB681B888D
:104D900043F001039AB2FB681A800020F9680222EE
:104DA0000023FFF7A5FA78614EE04DE07B6893F8A9
:104DB0002030042B04D13B699B889BB2002B0CD084
:104DC0007B6893F82030052B12D13B699B889AB2FF
:104DD0007B68DB7F9BB29A420AD2FB6800221A8072
:104DE0000020F96802220023FFF782FA78612BE0A5
:104DF0002AE03B699B889BB2DBB21846FFF736FD81
:104E0000B860BB68002B1ED07B6893F82030042B61
:104E100003D1BB689B78002B04D07B6893F82030CB
:104E2000052B10D1B868F968FFF7A6FB03467B6134
:104E30007B69002B07D10020F96802220023FFF7CD
:104E400057FA7861FFE700BF7B6918461837BD46FF
:104E500080BD00BF9004002080B584B000AF7860B2
:104E60004FF0FF33FB607B681B68BB60BB689B88AF
:104E70009BB2002B10D1BB68DB889BB2002B0BD1FF
:104E8000BB685B889BB27F2B06D8BB681B7803F09E
:104E90001F03DBB2002B02D04FF0FF332DE07B6805
:104EA00093F82030032B11D1BB685B889BB2002B99
:104EB00002D00420FFF7E4F9BB685B889BB2DBB249
:104EC0001846FFF7B1FB0023FB6015E07B6893F801
:104ED0002030042B10D1BB685B889BB2002B02D121
:104EE0000320FFF7CDF9BB685B889BB2DBB21846A5
:104EF000FFF79AFB0023FB60FB6818461037BD469E
:104F000080BD00BF80B584B000AF78604FF0FF3344
:104F1000FB607B681B68BB60BB689B889BB2002BF7
:104F200012D1BB68DB889BB2002B0DD1BB685B88BC
:104F30009BB21B0A9BB2002B06D1BB681B7803F007
:104F40001F03DBB2002B02D04FF0FF3356E07B682B
:104F500093F82030042B25D1BB685B889BB2002BD3
:104F600008D0BB685B889AB27B689B6A5B799BB20E
:104F70009A4242D1BB685B889BB2DAB27B681A77EF
:104F8000BB685B889AB27B689B6A5B799BB29A42EA
:104F900005D10120FFF71CFC0520FFF771F9002364
:104FA000FB602AE07B6893F82030052B25D1BB6895
:104FB0005B889BB2002B08D0BB685B889AB27B6889
:104FC0009B6A5B799BB29A4217D1BB685B889BB2A4
:104FD000DAB27B681A77BB685B889BB2002B07D17B
:104FE0000420FFF74DF96FF00800FFF713FC02E013
:104FF0000020FFF7EDFB0023FB60FB68184610372D
:10500000BD4680BD80B586B000AF78604FF0FF33FD
:105010007B617B681B683B613B69DB889BB2002B33
:1050200002D04FF0FF3363E03B691B78C3F3040306
:10503000DBB2002B02D0022B1DD058E03B699B88CD
:105040009BB2002B16D13B695B889BB2012B11D11F
:105050007B6893F82030052B0CD17B689B6ADB7949
:1050600003F02003002B05D07B6801225A77002330
:105070007B613CE03BE03B699B889BB2DBB218461E
:10508000FFF7F4FBF860FB68002B30D0FB689B78DF
:10509000002B2CD03B695B889BB2002B27D17B680F
:1050A00093F82030052B22D1F868FFF7D7FA034692
:1050B0007B61FB68002283F820207B69002B16D1DE
:1050C000FB6893F82030002B11D0FB685B6A002B43
:1050D0000DD0FB685B6ABB60FB6800225A62FB680C
:1050E0005969FB681A69BB686FF0040098477B69CF
:1050F00018461837BD4680BD80B584B000AF7860D3
:105100004FF0FF33FB607B681B68BB60BB689B880C
:105110009AB27B68DB7F9BB29A421AD2BB68DB886B
:105120009BB2002B15D1BB685B889BB2002B10D1C2
:105130007B6893F82030052B0BD1BB681B7803F0FC
:105140001F03DBB2012B04D10020FFF741FB00233A
:1051500000E0FB6818461037BD4680BD80B483B0C0
:1051600000AF7860104A7B680433194602F5723349
:1051700003F5457319600C490B4B03F5723303F5C6
:1051800040731B6823F03C427B68D3F8F430134330
:1051900043F0004201F5723303F540731A600C3797
:1051A000BD465DF8047B704700400C4080B487B07A
:1051B00000AF7860FF23FB747B681B78002B23D043
:1051C0007B689B785A01224B13441B6823F0705371
:1051D0007B617B6903F44023FB60FB68B3F5802FA0
:1051E0002ED07B69002B03DA7B6943F080437B611F
:1051F0007B689B785A01164B13447A6942F400127B
:105200001A600023FB741BE07B689B785A01114BEA
:1052100013441B6823F070537B617B6903F44023C4
:10522000FB60FB68B3F5802F0AD07B689B785A013E
:10523000084B13447A6942F400121A600023FB748D
:10524000FB7C5BB218461C37BD465DF8047B70479B
:1052500000091040000B104080B483B000AF7860AC
:10526000396010497B6843F4002201F5723303F57D
:1052700088731A600B490B4B03F5723303F5807387
:105280001B6823F03C423B68134343F0044201F5A2
:10529000723303F580731A600C37BD465DF8047BEA
:1052A000704700BF00400C4080B483B000AF78600E
:1052B000396010497B6843F4002201F5723303F52D
:1052C00044731A600B490B4B03F5723303F54073BB
:1052D0001B6823F03C423B68134343F0044201F552
:1052E000723303F540731A600C37BD465DF8047BDA
:1052F000704700BF00400C4080B485B000AF03464B
:10530000FB710023BB60FB795BB2002B09DA194B00
:105310001A68FB7903F00F03134493F8D430FB6051
:1053200008E0144B1A68FB7903F00F03134493F859
:10533000E430FB60FB68002B0BD00E4B1968FA6859
:1053400013469B001344DB0030330B440433BB6033
:1053500008E0FB7903F00F03002B03D1054B1B681A
:105360003433BB60BB6818461437BD465DF8047B18
:10537000704700BF5800002080B584B000AF78604F
:105380007B681B78002B13D07B681B69FB607B68F4
:105390009B897B817A89FB689A4228BF1A460B4B0E
:1053A0001B68D3F8F43010461946FFF755FF0AE0A2
:1053B0007B689B891A46054B1B68D3F8F43010466E
:1053C0001946FFF771FF1037BD4680BD5800002019
:1053D00080B584B000AF78607B683433BB60BB6855
:1053E00093F82030042B00F2158101A252F823F02B
:1053F000055400006D550000E5540000DF55000025
:10540000DF550000BB6800221A61BB6800225A7099
:10541000824B00221A60824B00221A707868FFF7D4
:1054200065FAF860FB68B3F1FF3F0FD1BB6801225A
:105430001A70B868FFF7BAFEBB6800221A70B86825
:10544000FFF7B4FE7868FFF789FE4AE0BB6893F87F
:105450002030022B04D0BB6893F82030012B03D1FD
:10546000BB685B6A6D4A1360BB6893F82030022BFF
:1054700037D0BB681B69002B16D0BB681B697A68E4
:105480001268D28892B293422BD2BB681B69BA6869
:105490009289B3FBF2F102FB01F29B1A002B20D19F
:1054A000BB6801225A70B6E07868FFF757FE5D4B83
:1054B00000221A60BB685B78002B0AD10020002113
:1054C00000220023FEF714FFBB68032283F820208C
:1054D00007E0BB68002283F82020BB6800221A7016
:1054E00099E098E0BB681B69002B03D0B868FFF710
:1054F00043FF3AE00023FB60484B1B68002B0BD0B6
:10550000464B1B68BA685269002011460022984732
:10551000F860424B00221A60FB68002B13D0BB6876
:1055200001221A70B868FFF741FEBB6800221A70AA
:10553000B868FFF73BFE7868FFF710FEBB680022F3
:1055400083F8202011E07868FFF708FEBB6800228E
:1055500083F820200020002100220023FEF7C8FE4F
:10556000BB68032283F8202055E054E0BB681B6928
:10557000002B03D0B868FFF7FFFE2FE0BB685B7815
:10558000012B11D1BB685B69264A1360BB680022FE
:1055900083F820200020002100220023FEF7A8FE2F
:1055A000BB6802225A7019E0BB685B78002B03D1FC
:1055B000BB685B691B4A1360BB68002283F820202C
:1055C0000020002100220023FEF7C6FD144B01221B
:1055D0001A70BB68042283F820201CE01BE0104BEB
:1055E0001B78002B02D07868FFF7B8FD0B4B1B68C7
:1055F000002B07D0094B1B680A4A1268002011468D
:1056000000229847BB68002283F82020BB68002254
:105610001A7000E000BF1037BD4680BD9404002022
:10562000980400209C04002080B584B000AF03469D
:10563000FB71FB791846FFF75FFEF860FB6893F893
:105640002030012B04D0FB6893F82030022B14D1BA
:10565000FB68002283F82020FB685B6A002B0CD0DB
:10566000FB685B6ABB60FB6800225A62FB68596991
:10567000FB681A69BB68002098471037BD4680BD9B
:1056800080B483B000AF0346FB710C49FB799B01EA
:1056900043F0200201F5703310331A6000BF074B4E
:1056A00003F5703310331B6803F02003002BF6D191
:1056B0000C37BD465DF8047B704700BF00400C40CE
:1056C00080B483B000AF0A4B03F5703314331B680A
:1056D0007B60074B03F5703318331B687A681340FF
:1056E0007B607B6818460C37BD465DF8047B7047CD
:1056F00000400C4080B485B000AF7860114B03F5DA
:105700007033183300221A600E4B03F570331433D4
:105710004FF0FF321A600C4BFB607B681B6B1B6900
:10572000002B03D0FB6843F00803FB60054B03F537
:1057300070331833FA681A601437BD465DF8047B7D
:10574000704700BF00400C4000380C8080B400AFB0
:10575000084B03F57033183300221A60054B03F52C
:10576000703318334FF4C0521A60BD465DF8047BA5
:10577000704700BF00400C4080B483B000AF786039
:105780001249124B03F5723304331B6823F4F063A0
:1057900043F4807201F5723304331A600B490B4BEA
:1057A00003F5723303F540731B6823F03C427B68BA
:1057B000134343F0044201F5723303F540731A605A
:1057C0000C37BD465DF8047B704700BF00400C40BD
:1057D00080B483B000AF0B4B03F5723318331B68F2
:1057E0007B60084B03F572331C331B687A681340E7
:1057F0007B607B689BB218460C37BD465DF8047B26
:10580000704700BF00400C4080B483B000AF0B4B2A
:1058100003F5723318331B687B60084B03F5723352
:105820001C331B687A6813407B607B681B0C18462E
:105830000C37BD465DF8047B704700BF00400C404C
:1058400080B485B000AF78600A4B03F57233103333
:105850001B68FB607B689B785A01074B13449B686D
:10586000BB60BA68FB68134018461437BD465DF844
:10587000047B704700400C400009104080B485B0A4
:1058800000AF78607B689B785A01094B13449B6892
:10589000FB60084B03F5723314331B68FA6813403E
:1058A000FB60FB6818461437BD465DF8047B704703
:1058B000000B104000400C4080B483B000AF786013
:1058C0007B68002283F83420164B03F5723303F50E
:1058D00044734FF0C0421A607B681A1D7B681A60DF
:1058E000104A7B681B68194602F5723303F545734D
:1058F00019600C490B4B03F5723303F540731B68B9
:1059000023F03C427B68D3F8F430134343F0044265
:1059100001F5723303F540731A600C37BD465DF82C
:10592000047B704700400C4080B485B000AF034654
:10593000FB710023BB60FB795BB2002B09DA194BCA
:105940001A68FB7903F00F03134493F8D430FB601B
:1059500008E0144B1A68FB7903F00F03134493F823
:10596000E430FB60FB68002B0BD00E4B1968FA6823
:1059700013469B001344DB0030330B440433BB60FD
:1059800008E0FB7903F00F03002B03D1054B1B68E4
:105990003433BB60BB6818461437BD465DF8047BE2
:1059A000704700BF5800002080B584B000AF0023CE
:1059B000FB7203F00DFB7860684B1B78DBB2002BA9
:1059C00015D0674BDB6A03F00403002B05D1644A52
:1059D000644B1B6803F014031362614B20225A626C
:1059E00000BF5F4BDB6A03F40043002BF9D05E4B32
:1059F0009B68002B4BD05C4B1B6803F40033002BDF
:105A000045D0594B9B6803F00103002B14D0564B33
:105A100001221A61544B5B6803F00103002B0BD089
:105A20000123FB7200F0D4FC0346002B01D0FFF7EA
:105A30008DFE0220FEF724FC4B4B9B6803F0020313
:105A4000002B24D0484B02221A61474B5B6803F0BD
:105A50000103002B1BD10123FB72404B1B78DBB2EF
:105A600083F00103DBB2002B0CD03F4B03F5703306
:105A7000183300221A603C4B03F5703314334FF097
:105A8000FF321A6000F04EFB0020FEF7F9FBFFF733
:105A900017FEF860FB68002B03D1786803F0A8FAC2
:105AA00058E0FB6803F40003002B05D000F0FEF97A
:105AB000FB6823F40003FB60FB68002B05DA00F0B1
:105AC000F9FAFB6823F00043FB60FB6803F4006312
:105AD000002B05D000F0BEFAFB6823F40063FB60E6
